{
  "contractName": "Extollet",
  "abi": [
    {
      "constant": true,
      "inputs": [],
      "name": "rate",
      "outputs": [
        {
          "name": "",
          "type": "uint256"
        }
      ],
      "payable": false,
      "stateMutability": "view",
      "type": "function"
    },
    {
      "constant": false,
      "inputs": [
        {
          "name": "_newController",
          "type": "address"
        }
      ],
      "name": "changeController",
      "outputs": [],
      "payable": false,
      "stateMutability": "nonpayable",
      "type": "function"
    },
    {
      "constant": true,
      "inputs": [],
      "name": "vaultAddress",
      "outputs": [
        {
          "name": "",
          "type": "address"
        }
      ],
      "payable": false,
      "stateMutability": "view",
      "type": "function"
    },
    {
      "constant": true,
      "inputs": [],
      "name": "tokenContract",
      "outputs": [
        {
          "name": "",
          "type": "address"
        }
      ],
      "payable": false,
      "stateMutability": "view",
      "type": "function"
    },
    {
      "constant": true,
      "inputs": [],
      "name": "totalTokensSold",
      "outputs": [
        {
          "name": "",
          "type": "uint256"
        }
      ],
      "payable": false,
      "stateMutability": "view",
      "type": "function"
    },
    {
      "constant": true,
      "inputs": [],
      "name": "startFundingTime",
      "outputs": [
        {
          "name": "",
          "type": "uint256"
        }
      ],
      "payable": false,
      "stateMutability": "view",
      "type": "function"
    },
    {
      "constant": true,
      "inputs": [],
      "name": "volume",
      "outputs": [
        {
          "name": "",
          "type": "uint256"
        }
      ],
      "payable": false,
      "stateMutability": "view",
      "type": "function"
    },
    {
      "constant": true,
      "inputs": [],
      "name": "totalCollected",
      "outputs": [
        {
          "name": "",
          "type": "uint256"
        }
      ],
      "payable": false,
      "stateMutability": "view",
      "type": "function"
    },
    {
      "constant": true,
      "inputs": [],
      "name": "endFundingTime",
      "outputs": [
        {
          "name": "",
          "type": "uint256"
        }
      ],
      "payable": false,
      "stateMutability": "view",
      "type": "function"
    },
    {
      "constant": true,
      "inputs": [],
      "name": "controller",
      "outputs": [
        {
          "name": "",
          "type": "address"
        }
      ],
      "payable": false,
      "stateMutability": "view",
      "type": "function"
    },
    {
      "inputs": [
        {
          "name": "_startFundingTime",
          "type": "uint256"
        },
        {
          "name": "_endFundingTime",
          "type": "uint256"
        },
        {
          "name": "_volume",
          "type": "uint256"
        },
        {
          "name": "_rate",
          "type": "uint256"
        },
        {
          "name": "_vaultAddress",
          "type": "address"
        },
        {
          "name": "_tokenAddress",
          "type": "address"
        }
      ],
      "payable": false,
      "stateMutability": "nonpayable",
      "type": "constructor"
    },
    {
      "payable": true,
      "stateMutability": "payable",
      "type": "fallback"
    },
    {
      "constant": false,
      "inputs": [
        {
          "name": "_newVaultAddress",
          "type": "address"
        }
      ],
      "name": "setVault",
      "outputs": [],
      "payable": false,
      "stateMutability": "nonpayable",
      "type": "function"
    },
    {
      "constant": false,
      "inputs": [],
      "name": "finalizeFunding",
      "outputs": [],
      "payable": false,
      "stateMutability": "nonpayable",
      "type": "function"
    },
    {
      "constant": false,
      "inputs": [
        {
          "name": "_owner",
          "type": "address"
        }
      ],
      "name": "proxyPayment",
      "outputs": [
        {
          "name": "",
          "type": "bool"
        }
      ],
      "payable": true,
      "stateMutability": "payable",
      "type": "function"
    },
    {
      "constant": false,
      "inputs": [
        {
          "name": "_from",
          "type": "address"
        },
        {
          "name": "_to",
          "type": "address"
        },
        {
          "name": "_amount",
          "type": "uint256"
        }
      ],
      "name": "onTransfer",
      "outputs": [
        {
          "name": "",
          "type": "bool"
        }
      ],
      "payable": false,
      "stateMutability": "nonpayable",
      "type": "function"
    },
    {
      "constant": false,
      "inputs": [
        {
          "name": "_owner",
          "type": "address"
        },
        {
          "name": "_spender",
          "type": "address"
        },
        {
          "name": "_amount",
          "type": "uint256"
        }
      ],
      "name": "onApprove",
      "outputs": [
        {
          "name": "",
          "type": "bool"
        }
      ],
      "payable": false,
      "stateMutability": "nonpayable",
      "type": "function"
    }
  ],
  "bytecode": "0x608060405234801561001057600080fd5b5060405160c080610e9a833981018060405281019080805190602001909291908051906020019092919080519060200190929190805190602001909291908051906020019092919080519060200190929190505050336000806101000a81548173ffffffffffffffffffffffffffffffffffffffff021916908373ffffffffffffffffffffffffffffffffffffffff1602179055504285101580156100b457508585115b80156100c05750600084115b80156100cc5750600083115b80156100ef575060008273ffffffffffffffffffffffffffffffffffffffff1614155b15156100fa57600080fd5b8560018190555084600281905550836003819055508260068190555081600860006101000a81548173ffffffffffffffffffffffffffffffffffffffff021916908373ffffffffffffffffffffffffffffffffffffffff1602179055506000600481905550600060058190555080600760006101000a81548173ffffffffffffffffffffffffffffffffffffffff021916908373ffffffffffffffffffffffffffffffffffffffff160217905550505050505050610cdd806101bd6000396000f3006080604052600436106100db576000357c0100000000000000000000000000000000000000000000000000000000900463ffffffff1680632c4e722e146100e65780633cebb82314610111578063430bf08a146101545780634a393149146101ab57806355a373d61461023057806363b20117146102875780636817031b146102b2578063a19ed39d146102f5578063b75ece9c1461030c578063c618a1e414610337578063da682aeb14610362578063e29eb836146103e7578063e4693e9814610412578063f48c30541461043d578063f77c47911461048b575b6100e4336104e2565b005b3480156100f257600080fd5b506100fb6107ab565b6040518082815260200191505060405180910390f35b34801561011d57600080fd5b50610152600480360381019080803573ffffffffffffffffffffffffffffffffffffffff1690602001909291905050506107b1565b005b34801561016057600080fd5b5061016961084f565b604051808273ffffffffffffffffffffffffffffffffffffffff1673ffffffffffffffffffffffffffffffffffffffff16815260200191505060405180910390f35b3480156101b757600080fd5b50610216600480360381019080803573ffffffffffffffffffffffffffffffffffffffff169060200190929190803573ffffffffffffffffffffffffffffffffffffffff16906020019092919080359060200190929190505050610875565b604051808215151515815260200191505060405180910390f35b34801561023c57600080fd5b50610245610882565b604051808273ffffffffffffffffffffffffffffffffffffffff1673ffffffffffffffffffffffffffffffffffffffff16815260200191505060405180910390f35b34801561029357600080fd5b5061029c6108a8565b6040518082815260200191505060405180910390f35b3480156102be57600080fd5b506102f3600480360381019080803573ffffffffffffffffffffffffffffffffffffffff1690602001909291905050506108ae565b005b34801561030157600080fd5b5061030a61094d565b005b34801561031857600080fd5b50610321610bb1565b6040518082815260200191505060405180910390f35b34801561034357600080fd5b5061034c610bb7565b6040518082815260200191505060405180910390f35b34801561036e57600080fd5b506103cd600480360381019080803573ffffffffffffffffffffffffffffffffffffffff169060200190929190803573ffffffffffffffffffffffffffffffffffffffff16906020019092919080359060200190929190505050610bbd565b604051808215151515815260200191505060405180910390f35b3480156103f357600080fd5b506103fc610bca565b6040518082815260200191505060405180910390f35b34801561041e57600080fd5b50610427610bd0565b6040518082815260200191505060405180910390f35b610471600480360381019080803573ffffffffffffffffffffffffffffffffffffffff169060200190929190505050610bd6565b604051808215151515815260200191505060405180910390f35b34801561049757600080fd5b506104a0610bea565b604051808273ffffffffffffffffffffffffffffffffffffffff1673ffffffffffffffffffffffffffffffffffffffff16815260200191505060405180910390f35b60006104ed34610c0f565b9050600154421015801561050357506002544211155b80156105e657506000600760009054906101000a900473ffffffffffffffffffffffffffffffffffffffff1673ffffffffffffffffffffffffffffffffffffffff1663f77c47916040518163ffffffff167c0100000000000000000000000000000000000000000000000000000000028152600401602060405180830381600087803b15801561059257600080fd5b505af11580156105a6573d6000803e3d6000fd5b505050506040513d60208110156105bc57600080fd5b810190808051906020019092919050505073ffffffffffffffffffffffffffffffffffffffff1614155b80156105f3575060003414155b80156106055750600354816004540111155b151561061057600080fd5b346004600082825401925050819055508060056000828254019250508190555061063a8234610c2d565b600860009054906101000a900473ffffffffffffffffffffffffffffffffffffffff1673ffffffffffffffffffffffffffffffffffffffff166108fc349081150290604051600060405180830381858888f19350505050151561069c57600080fd5b600760009054906101000a900473ffffffffffffffffffffffffffffffffffffffff1673ffffffffffffffffffffffffffffffffffffffff1663a9059cbb83836040518363ffffffff167c0100000000000000000000000000000000000000000000000000000000028152600401808373ffffffffffffffffffffffffffffffffffffffff1673ffffffffffffffffffffffffffffffffffffffff16815260200182815260200192505050602060405180830381600087803b15801561076157600080fd5b505af1158015610775573d6000803e3d6000fd5b505050506040513d602081101561078b57600080fd5b810190808051906020019092919050505015156107a757600080fd5b5050565b60065481565b6000809054906101000a900473ffffffffffffffffffffffffffffffffffffffff1673ffffffffffffffffffffffffffffffffffffffff163373ffffffffffffffffffffffffffffffffffffffff1614151561080c57600080fd5b806000806101000a81548173ffffffffffffffffffffffffffffffffffffffff021916908373ffffffffffffffffffffffffffffffffffffffff16021790555050565b600860009054906101000a900473ffffffffffffffffffffffffffffffffffffffff1681565b6000600190509392505050565b600760009054906101000a900473ffffffffffffffffffffffffffffffffffffffff1681565b60055481565b6000809054906101000a900473ffffffffffffffffffffffffffffffffffffffff1673ffffffffffffffffffffffffffffffffffffffff163373ffffffffffffffffffffffffffffffffffffffff1614151561090957600080fd5b80600860006101000a81548173ffffffffffffffffffffffffffffffffffffffff021916908373ffffffffffffffffffffffffffffffffffffffff16021790555050565b60008060009054906101000a900473ffffffffffffffffffffffffffffffffffffffff1673ffffffffffffffffffffffffffffffffffffffff163373ffffffffffffffffffffffffffffffffffffffff161415156109aa57600080fd5b60025442101515156109bb57600080fd5b6109d2600554600354610c7d90919063ffffffff16565b90506000811115156109e357600080fd5b600760009054906101000a900473ffffffffffffffffffffffffffffffffffffffff1673ffffffffffffffffffffffffffffffffffffffff1663a9059cbb600760009054906101000a900473ffffffffffffffffffffffffffffffffffffffff1673ffffffffffffffffffffffffffffffffffffffff1663f77c47916040518163ffffffff167c0100000000000000000000000000000000000000000000000000000000028152600401602060405180830381600087803b158015610aa757600080fd5b505af1158015610abb573d6000803e3d6000fd5b505050506040513d6020811015610ad157600080fd5b8101908080519060200190929190505050836040518363ffffffff167c0100000000000000000000000000000000000000000000000000000000028152600401808373ffffffffffffffffffffffffffffffffffffffff1673ffffffffffffffffffffffffffffffffffffffff16815260200182815260200192505050602060405180830381600087803b158015610b6857600080fd5b505af1158015610b7c573d6000803e3d6000fd5b505050506040513d6020811015610b9257600080fd5b81019080805190602001909291905050501515610bae57600080fd5b50565b60015481565b60035481565b6000600190509392505050565b60045481565b60025481565b6000610be1826104e2565b60019050919050565b6000809054906101000a900473ffffffffffffffffffffffffffffffffffffffff1681565b6000610c2660065483610c9690919063ffffffff16565b9050919050565b600073ffffffffffffffffffffffffffffffffffffffff168273ffffffffffffffffffffffffffffffffffffffff1614151515610c6957600080fd5b60008114151515610c7957600080fd5b5050565b6000828211151515610c8b57fe5b818303905092915050565b6000808284811515610ca457fe5b04905080915050929150505600a165627a7a72305820882d851d3d0572ed3b0480c94417ffe96ded50581ecadd4b94a449295b539a770029",
  "source": "pragma solidity ^0.4.24;\n\nimport \"./SofiaToken.sol\";\nimport \"./Controlled.sol\";\nimport \"./TokenController.sol\";\nimport \"./SafeMath.sol\";\n\ncontract Extollet is TokenController, Controlled {\n\n    using SafeMath for uint;\n\n    uint256 public startFundingTime;       // In UNIX Time Format\n    uint256 public endFundingTime;         // In UNIX Time Format\n    uint public volume;\n    uint public totalCollected;         // In wei\n    uint public totalTokensSold;\n    uint public rate;\n    SofiaToken public tokenContract;   // The new token for this Campaign\n    address public vaultAddress;        // The address to hold the funds donated\n\n// @notice 'Extollet()' initiates the Campaign by setting its funding\n// parameters\n// @param _startFundingTime The time that the Campaign will be able to\n// start receiving funds\n// @param _endFundingTime The time that the Campaign will stop being able\n// to receive funds\n// @param _maximumFunding In wei, the Maximum amount that the Campaign can\n// receive\n// @param _volume Total volume\n// @param _rate Rate in wei\n// to receive funds\n// @param _vaultAddress The address that will store the donated funds\n// @param _tokenAddress Address of the token contract this contract controls\n\n  function Extollet(\n      uint256 _startFundingTime,\n      uint256 _endFundingTime,\n      uint _volume,\n      uint _rate,\n      address _vaultAddress,\n      address _tokenAddress\n    ) public {\n     require ((_endFundingTime >= now) &&           // Cannot end in the past\n              (_endFundingTime > _startFundingTime) &&\n              (_volume > 0) &&\n              (_rate > 0) &&\n              (_vaultAddress != 0));                    // To prevent burning ETH\n      startFundingTime = _startFundingTime;\n      endFundingTime = _endFundingTime;\n      volume = _volume;\n      rate = _rate;\n      vaultAddress = _vaultAddress;\n      totalCollected = 0;\n      totalTokensSold = 0;\n      tokenContract = SofiaToken(_tokenAddress);// The Deployed Token Contract\n      }\n\n// @dev The fallback function is called when ether is sent to the contract, it\n// simply calls `doPayment()` with the address that sent the ether as the\n// `_owner`. Payable is a required solidity modifier for functions to receive\n// ether, without this modifier functions will throw if ether is sent to them\n\n  function () public payable{\n    doPayment(msg.sender);\n  }\n// @dev `doPayment()` is an internal function that sends the ether that this\n//  contract receives to the `vault` and creates tokens in the address of the\n//  `_owner` assuming the Campaign is still accepting funds\n// @param _owner The address that will hold the newly created tokens\n\n  function doPayment(address _owner) internal {\n  // Calculate token amount\n    uint tokenAmount = getTokenAmount(msg.value);\n  // Check that the Campaign is allowed to receive this donation\n    require ((now >= startFundingTime) &&\n            (now <= endFundingTime) &&\n            (tokenContract.controller() != 0) &&           // Extra check\n            (msg.value != 0) &&\n            ((totalCollected + tokenAmount) <= volume)\n            );\n  //Track how much the Campaign has collected\n    totalCollected += msg.value;\n    totalTokensSold += tokenAmount;\n  //Send the ether to the vault\n    preValidatePurchase(_owner,msg.value);\n    require (vaultAddress.send(msg.value));\n    require (tokenContract.transfer(_owner,tokenAmount));\n    return;\n    }\n\n//@dev Validation of an incoming purchase. Use require statemens to revert state when conditions are not met. Use super to concatenate validations.\n//@param _beneficiary Address performing the token purchase\n//@param _weiAmount Value in wei involved in the purchase\n\n    function preValidatePurchase(address _beneficiary, uint256 _weiAmount) internal {\n      require(_beneficiary != address(0));\n      require(_weiAmount != 0);\n    }\n//@dev Override to extend the way in which ether is converted to tokens.\n//@param _weiAmount Value in wei to be converted into tokens\n//@return Number of tokens that can be purchased with the specified _weiAmount\n\n    function getTokenAmount(uint _weiAmount) internal view returns (uint) {\n      return _weiAmount.div(rate);\n    }\n\n// @notice `onlyController` changes the location that ether is sent\n// @param _newVaultAddress The address that will receive the ether sent to this\n    function setVault(address _newVaultAddress) public onlyController {\n        vaultAddress = _newVaultAddress;\n    }\n\n// @notice `finalizeFunding()` ends the Campaign by calling setting the\n//  controller to 0, thereby ending the issuance of new tokens and stopping the\n//  Campaign from receiving more ether\n// @dev `finalizeFunding()` can only be called after the end of the funding period.\n    function finalizeFunding() public onlyController\n    {\n            require(now >= endFundingTime);\n            uint tokensLeft = volume.sub(totalTokensSold);\n            require(tokensLeft > 0);\n            require(tokenContract.transfer(tokenContract.controller(),tokensLeft));\n    }\n    ////////////\n// TokenController interface\n////////////\n\n// @notice `proxyPayment()` allows the caller to send ether to the Campaign and\n// have the tokens created in an address of their choosing\n// @param _owner The address that will hold the newly created tokens\n\n    function proxyPayment(address _owner) payable returns(bool) {\n        doPayment(_owner);\n        return true;\n    }\n\n// @notice Notifies the controller about a transfer, for this Campaign all\n//  transfers are allowed by default and no extra notifications are needed\n// @param _from The origin of the transfer\n// @param _to The destination of the transfer\n// @param _amount The amount of the transfer\n// @return False if the controller does not authorize the transfer\n\n    function onTransfer(address _from, address _to, uint _amount) returns(bool) {\n        return true;\n    }\n\n// @notice Notifies the controller about an approval, for this Campaign all\n//  approvals are allowed by default and no extra notifications are needed\n// @param _owner The address that calls `approve()`\n// @param _spender The spender in the `approve()` call\n// @param _amount The amount in the `approve()` call\n// @return False if the controller does not authorize the approval\n\n    function onApprove(address _owner, address _spender, uint _amount)\n        returns(bool)\n    {\n        return true;\n    }\n}\n",
  "sourcePath": "/Users/flaviogomes/Dropbox/The Plan/Development/Token Stuff/WIP/contracts/Extollet.sol",
  "compiler": {
    "name": "solc",
    "version": "0.4.24+commit.e67f0147.Emscripten.clang"
  },
  "schemaVersion": "2.0.1",
  "updatedAt": "2018-07-23T21:22:10.390Z"
}